{
  "contractName": "TrialManager",
  "abi": [
    {
      "inputs": [],
      "stateMutability": "nonpayable",
      "type": "constructor"
    },
    {
      "anonymous": false,
      "inputs": [
        {
          "indexed": true,
          "internalType": "address",
          "name": "user",
          "type": "address"
        },
        {
          "indexed": false,
          "internalType": "uint256",
          "name": "additionalTime",
          "type": "uint256"
        }
      ],
      "name": "TrialExtended",
      "type": "event"
    },
    {
      "anonymous": false,
      "inputs": [
        {
          "indexed": true,
          "internalType": "address",
          "name": "user",
          "type": "address"
        },
        {
          "indexed": false,
          "internalType": "uint256",
          "name": "endTimestamp",
          "type": "uint256"
        }
      ],
      "name": "TrialSet",
      "type": "event"
    },
    {
      "inputs": [],
      "name": "admin",
      "outputs": [
        {
          "internalType": "address",
          "name": "",
          "type": "address"
        }
      ],
      "stateMutability": "view",
      "type": "function"
    },
    {
      "inputs": [
        {
          "internalType": "address",
          "name": "",
          "type": "address"
        }
      ],
      "name": "trialEnds",
      "outputs": [
        {
          "internalType": "uint256",
          "name": "",
          "type": "uint256"
        }
      ],
      "stateMutability": "view",
      "type": "function"
    },
    {
      "inputs": [
        {
          "internalType": "address",
          "name": "_admin",
          "type": "address"
        }
      ],
      "name": "setAdmin",
      "outputs": [],
      "stateMutability": "nonpayable",
      "type": "function"
    },
    {
      "inputs": [
        {
          "internalType": "address",
          "name": "user",
          "type": "address"
        },
        {
          "internalType": "uint256",
          "name": "endTimestamp",
          "type": "uint256"
        }
      ],
      "name": "setTrial",
      "outputs": [],
      "stateMutability": "nonpayable",
      "type": "function"
    },
    {
      "inputs": [
        {
          "internalType": "address",
          "name": "user",
          "type": "address"
        },
        {
          "internalType": "uint256",
          "name": "additionalTime",
          "type": "uint256"
        }
      ],
      "name": "extendTrial",
      "outputs": [],
      "stateMutability": "nonpayable",
      "type": "function"
    },
    {
      "inputs": [
        {
          "internalType": "address",
          "name": "user",
          "type": "address"
        }
      ],
      "name": "isTrialActive",
      "outputs": [
        {
          "internalType": "bool",
          "name": "",
          "type": "bool"
        }
      ],
      "stateMutability": "view",
      "type": "function"
    }
  ],
  "bytecode": "0x608060405234801561000f575f80fd5b50335f806101000a81548173ffffffffffffffffffffffffffffffffffffffff021916908373ffffffffffffffffffffffffffffffffffffffff1602179055506107898061005c5f395ff3fe608060405234801561000f575f80fd5b5060043610610060575f3560e01c806305d9d1dc146100645780631a599d4a146100805780633e45d126146100b0578063704b6c02146100cc57806378b6709b146100e8578063f851a44014610118575b5f80fd5b61007e60048036038101906100799190610569565b610136565b005b61009a600480360381019061009591906105a7565b610268565b6040516100a791906105e1565b60405180910390f35b6100ca60048036038101906100c59190610569565b61027d565b005b6100e660048036038101906100e191906105a7565b61039e565b005b61010260048036038101906100fd91906105a7565b61046d565b60405161010f9190610614565b60405180910390f35b6101206104b5565b60405161012d919061063c565b60405180910390f35b5f8054906101000a900473ffffffffffffffffffffffffffffffffffffffff1673ffffffffffffffffffffffffffffffffffffffff163373ffffffffffffffffffffffffffffffffffffffff16146101c3576040517f08c379a00000000000000000000000000000000000000000000000000000000081526004016101ba906106d5565b60405180910390fd5b8060015f8473ffffffffffffffffffffffffffffffffffffffff1673ffffffffffffffffffffffffffffffffffffffff1681526020019081526020015f205f82825461020f9190610720565b925050819055508173ffffffffffffffffffffffffffffffffffffffff167fb7683e68d1ca04f7bf0f4b6760155c20fed4dfb9982c6efd1b80b85e7d2b52f38260405161025c91906105e1565b60405180910390a25050565b6001602052805f5260405f205f915090505481565b5f8054906101000a900473ffffffffffffffffffffffffffffffffffffffff1673ffffffffffffffffffffffffffffffffffffffff163373ffffffffffffffffffffffffffffffffffffffff161461030a576040517f08c379a0000000000000000000000000000000000000000000000000000000008152600401610301906106d5565b60405180910390fd5b8060015f8473ffffffffffffffffffffffffffffffffffffffff1673ffffffffffffffffffffffffffffffffffffffff1681526020019081526020015f20819055508173ffffffffffffffffffffffffffffffffffffffff167fafd51125a3cdb81beab1bfa4249a0d26f995cd2b49c3ee942c34dbda2d6d28ee8260405161039291906105e1565b60405180910390a25050565b5f8054906101000a900473ffffffffffffffffffffffffffffffffffffffff1673ffffffffffffffffffffffffffffffffffffffff163373ffffffffffffffffffffffffffffffffffffffff161461042b576040517f08c379a0000000000000000000000000000000000000000000000000000000008152600401610422906106d5565b60405180910390fd5b805f806101000a81548173ffffffffffffffffffffffffffffffffffffffff021916908373ffffffffffffffffffffffffffffffffffffffff16021790555050565b5f4260015f8473ffffffffffffffffffffffffffffffffffffffff1673ffffffffffffffffffffffffffffffffffffffff1681526020019081526020015f2054119050919050565b5f8054906101000a900473ffffffffffffffffffffffffffffffffffffffff1681565b5f80fd5b5f73ffffffffffffffffffffffffffffffffffffffff82169050919050565b5f610505826104dc565b9050919050565b610515816104fb565b811461051f575f80fd5b50565b5f813590506105308161050c565b92915050565b5f819050919050565b61054881610536565b8114610552575f80fd5b50565b5f813590506105638161053f565b92915050565b5f806040838503121561057f5761057e6104d8565b5b5f61058c85828601610522565b925050602061059d85828601610555565b9150509250929050565b5f602082840312156105bc576105bb6104d8565b5b5f6105c984828501610522565b91505092915050565b6105db81610536565b82525050565b5f6020820190506105f45f8301846105d2565b92915050565b5f8115159050919050565b61060e816105fa565b82525050565b5f6020820190506106275f830184610605565b92915050565b610636816104fb565b82525050565b5f60208201905061064f5f83018461062d565b92915050565b5f82825260208201905092915050565b7f4f6e6c792061646d696e2063616e2063616c6c20746869732066756e6374696f5f8201527f6e00000000000000000000000000000000000000000000000000000000000000602082015250565b5f6106bf602183610655565b91506106ca82610665565b604082019050919050565b5f6020820190508181035f8301526106ec816106b3565b9050919050565b7f4e487b71000000000000000000000000000000000000000000000000000000005f52601160045260245ffd5b5f61072a82610536565b915061073583610536565b925082820190508082111561074d5761074c6106f3565b5b9291505056fea2646970667358221220153e5e3906288924a0e93d578f5a156ce813f2b2d6b4107b8a51eed23e01e08b64736f6c63430008150033",
  "immutableReferences": {},
  "source": "// SPDX-License-Identifier: MIT\npragma solidity ^0.8.0;\n\ncontract TrialManager {\n    address public admin;\n    mapping(address => uint256) public trialEnds;\n\n    event TrialSet(address indexed user, uint256 endTimestamp);\n    event TrialExtended(address indexed user, uint256 additionalTime);\n\n    constructor() {\n        admin = msg.sender;\n    }\n\n    modifier onlyAdmin() {\n        require(msg.sender == admin, \"Only admin can call this function\");\n        _;\n    }\n\n    function setAdmin(address _admin) public onlyAdmin {\n        admin = _admin;\n    }\n\n    function setTrial(address user, uint256 endTimestamp) public onlyAdmin {\n        trialEnds[user] = endTimestamp;\n        emit TrialSet(user, endTimestamp);\n    }\n\n    function extendTrial(address user, uint256 additionalTime) public onlyAdmin {\n        trialEnds[user] += additionalTime;\n        emit TrialExtended(user, additionalTime);\n    }\n\n    function isTrialActive(address user) public view returns (bool) {\n        return trialEnds[user] > block.timestamp;\n    }\n}\n",
  "sourcePath": "/Users/vaif/VaifR2/V3/vR2 VPN SITE V2/decentralized-vpn-contracts/contracts/TrialManager.sol",
  "compiler": {
    "name": "solc",
    "version": "0.8.21+commit.d9974bed.Emscripten.clang"
  },
  "schemaVersion": "3.4.15",
  "updatedAt": "2023-09-04T21:09:09.754Z",
  "devdoc": {
    "kind": "dev",
    "methods": {},
    "version": 1
  },
  "userdoc": {
    "kind": "user",
    "methods": {},
    "version": 1
  }
}